:040000004BEF04F0CE
:08000800046ED8CF05F0E0CF33
:1000100006F00001E9CF0CF0EACF07F0E1CF08F0DD
:10002000E2CF09F0D9CF0AF0DACF0BF0F3CF12F01C
:10003000F4CF13F0FACF14F0F5CF15F0F6CF16F099
:10004000F7CF17F000C00EF001C00FF002C010F0A3
:1000500003C011F0F2AA30EF00F0F2B4EBEF02F0BF
:100060000EC000F00FC001F010C002F011C003F08C
:100070000CC0E9FF07C0EAFF078E08C0E1FF09C016
:10008000E2FF0AC0D9FF0BC0DAFF12C0F3FF13C0B2
:10009000F4FF14C0FAFF15C0F5FF16C0F6FF17C035
:1000A000F7FF045006C0E0FF05C0D8FF10008E0E19
:1000B000006E4CC001F04BC002F0036A015209E12E
:1000C00002C001F0026A080E005E015202E1006AFD
:1000D00008D0D89001BE04D0023601360006F9D708
:1000E000019E000C800ED8B2541A596A5A6A50C048
:1000F00058F05450581A4F50D8B4DCD0576E006E98
:100100005350D8B4E0D0575ED8B481D03DE354C04A
:100110005DF05D8E55C05CF056C05BF05A6AD890B9
:100120005D325C325B325A32572EF8D758AE03D06C
:100130005980DDD0599057905988EA6A520EE96E7D
:10014000E9D0599858BE0AD057A013D05D325C321E
:100150005B325A32002AD8B4C5D00BD05DBE0CD069
:10016000D8905A365B365C365D360006D8B4BAD0C5
:10017000F5D7598C6BD0599C50C058F050AE02D076
:100180005D8EA9D05D9EA7D053C057F053C000F03C
:100190004F50575E50C05DF05D8E51C05CF052C054
:1001A0005BF05A6AD8905D325C325B325A32572E1D
:1001B000F8D758AE03D059829AD059925790598A9D
:1001C000EA6A560EE96EA6D0599A58BE0AD057A0D0
:1001D00013D05D325C325B325A32002AD8B482D0FE
:1001E0000BD05DBE0CD0D8905A365B365C365D368F
:1001F0000006D8B477D0F5D7598E28D0599E54C070
:1002000058F054AE02D05D8E66D05D9E64D054C06E
:100210005DF05D8E55C05CF056C05BF058AE04D00A
:100220005D9E598464D059945A6A5790EA6A520E76
:10023000E96E70D058BE1CD050C058F057A006D000
:100240005D325C325B325A32002A4CE05AAE0BD03F
:100250005B2A09E15C2A07E15D2A05E15D325C3237
:100260005B32002A3FE059BC86D759BEC7D71CD0A5
:10027000800E5D1A5DAE04D03AD054C058F00AD05A
:1002800050C058F05D5206E15C5204E15B5202E15D
:10029000006A21D05DBE08D0D8905A365B365C36F5
:1002A0005D36002EF7D71ED058AE02D05D8E13D02B
:1002B0005D9E11D053C000F054C05DF055C05CF09D
:1002C00056C05BF008D04FC000F050C05DF051C088
:1002D0005CF052C05BF05DC001F05CC002F05BC03E
:1002E00003F034D0006A016A026A036A2FD05A6AA6
:1002F0005B1E5C1E5D1E5A1E5A2A05E15B2A03E145
:100300005C2A01E15D2A59B015D759B256D759B4C4
:100310008AD7B3D7EF505B2605E35C2A03E15D2A59
:10032000D8B45780ED52EF505C2603E35D2AD8B471
:100330005780ED52EF50EFBE01D0800A5D26D8B055
:10034000578059B8FED659BA3FD774D7000C4F50D2
:10035000D8B471D0006E5350D8B46DD0002604E3E9
:10036000810E002668E204D07F0E005E64E363E045
:1003700050C057F05450571A508E548E5250560257
:10038000F4CF59F051505502F4CF03F0F3CF58F0A9
:100390005602F3505926F4505822000E03225250B0
:1003A0005502F3505926F4505822000E026A0322D7
:1003B000022250505602F3505826F4500322000EE9
:1003C000022250505502F3500326F4500222000E30
:1003D000016A012252505402F3505826F45003226D
:1003E000000E0222012251505402F3500326F45011
:1003F0000222000E012250505402F3500226F45003
:100400000122002A01BE05D05836033602360136D5
:100410000006000E58AE0AD0032A02220122015023
:1004200005E1025003E1035001E1002A57BE018EAD
:1004300057AE019E04D0006A016A026A036A000C8A
:100440004F50D8B4A5D05B6E5350D8B4A1D05B5EEA
:1004500005E37F0E5B26D8B09BD006D0810E5B5E95
:10046000D8A096D0D8B494D05BC000F0016A026ADC
:10047000036A5A6A50C059F0598E51C058F052C0A0
:1004800057F0190E5B6E5650575E0DE2010E585E26
:100490000AE2595E08E25A5E06E25A2A592A582AA6
:1004A0005650572628D05550585E12E2010E595E1C
:1004B0000FE25A5E0DE25A2A592A555058265650D4
:1004C000572619E3582A17E1592A15E15A2A13D059
:1004D00054508009595E0EE2010E5A5E0BE25A2A10
:1004E00054508009592655505826E9E3592AE7E126
:1004F0005A2AE5D703805B2E01D00BD0D89057360F
:10050000583659365A36D8900336023601365C369C
:10051000BAD75CA006D0D8900132023203325C32E6
:1005200002D0000635E05CBE1ED0D8905736583653
:1005300059365A365650575E07E2010E585E04E2AD
:10054000595E02E25A5E1AE35550585E05E2010E0A
:10055000595E02E25A5E12E354508009595E03E28A
:10056000010E5A5E0BE3032A09E1022A07E1012A80
:1005700005E1002A0DE001320232033250C05BF087
:1005800054505B1A5BAE02D0018E06D0019E04D09F
:10059000006A016A026A036AB2EF03F08E0E006E0F
:1005A0004B50005E4CC002F04DC001F0028E005274
:1005B00009E0D890025202E1015204E00232013215
:1005C000002EF7D74CAE05D0011E021E012AD8B46A
:1005D000022A29EF04F08A809390000E016EC25027
:1005E000E30B0110C26E060E006E002EFED7000057
:1005F000C282C2B2FED7C4504C6A4B6E58DD03C0F3
:1006000022F002C021F001C020F000C01FF0040E53
:10061000016EC250E30B0110C26E060E006E002E7A
:10062000FED70000C282C2B2FED7C4504C6A4B6EE5
:100630003EDD03C01EF002C01DF001C01CF000C072
:100640001BF02AC02EF029C02DF028C02CF027C0A6
:100650002BF0D88222C052F021C051F020C050F0BF
:100660001FC04FF01EC056F01DC055F01CC054F006
:100670001BC053F037DD03C02AF002C029F001C0CF
:1006800028F000C027F02EC052F02DC051F02CC031
:1006900050F02BC04FF04AC056F049C055F048C04A
:1006A00054F047C053F053DE00C04BF001C04CF093
:1006B00002C04DF003C04EF003C052F002C051F032
:1006C00001C050F000C04FF042C056F041C055F09C
:1006D00040C054F03FC053F03ADED8923AC052F0D6
:1006E00039C051F038C050F037C04FF003C056F059
:1006F00002C055F001C054F000C053F0F3DC03C059
:100700003AF002C039F001C038F000C037F0D882AA
:100710002AC052F029C051F028C050F027C04FF035
:100720002EC056F02DC055F02CC054F02BC053F005
:10073000D9DC00C04BF001C04CF002C04DF003C04A
:100740004EF003C052F002C051F001C050F000C0A2
:100750004FF04AC056F049C055F048C054F047C069
:1007600053F06ED600C04BF001C04CF002C04DF00B
:1007700003C04EF003C052F002C051F001C050F06F
:1007800000C04FF046C056F045C055F044C054F08C
:1007900043C053F0DCDD03C032F002C031F001C0D1
:1007A00030F000C02FF02AC052F029C051F028C00C
:1007B00050F027C04FF03EC056F03DC055F03CC051
:1007C00054F03BC053F0C3DD03C036F002C035F037
:1007D00001C034F000C033F0D8923AC052F039C0B2
:1007E00051F038C050F037C04FF032C056F031C031
:1007F00055F030C054F02FC053F074DC00C04BF003
:1008000001C04CF002C04DF003C04EF0D89203C0BE
:1008100052F002C051F001C050F000C04FF036C09D
:1008200056F035C055F034C054F033C053F05ADCA4
:1008300003C026F002C025F001C024F000C023F060
:1008400026C04EF025C04DF024C04CF023C04BF024
:10085000A5D601C01AF019C0A9FF1AC0A8FFA69C0E
:10086000A69EA684F250006EF29E0F01550EA76E52
:10087000AA0EA76EA682A6B2FED7A6940050F212C8
:10088000192AFC0ED76E170ED66E8A909390F294AA
:10089000000130EF00F0F86AD09E078EEA6AE96A3C
:1008A000720ED36ED350196A1A6A1E6A1D6A1C6AC8
:1008B0001B6A226A216A206A1F6A266A256A246ADC
:1008C000236A326A316A306A2F6A366A356A346A54
:1008D000336A3A6A396A386A376A3E6A3D6A3C6AFC
:1008E000800E3B6E426A416A406A7D0E3F6E466AE8
:1008F000456A446A7C0E436E4A6A496A486A7A0EBF
:10090000476EC29CC29EC150800B7F09C16EC05011
:10091000C00B0709C06EC09EC280C29CC29EC1505F
:10092000800B7C09C16E000E016EC250E30B0110FA
:10093000C26E060E006E002EFED70000C282800E30
:10094000D56EFC0ED76E170ED66EF294C00EF21254
:06095000F28AFFD703004C
:020000040030CA
:0E00000000C80C1E0000810003C003E0034096
:00000001FF
;PIC18F1220
;CRC=00BE  CREATED="24-mai-22 00:27"
