:04000000F1EF00F02C
:08000800046ED8CF05F0E0CF33
:1000100006F00001E9CF0CF0EACF07F0E1CF08F0DD
:10002000E2CF09F0D9CF0AF0DACF0BF0F3CF12F01C
:10003000F4CF13F0FACF14F0F5CF15F0F6CF16F099
:10004000F7CF17F000C00EF001C00FF002C010F0A3
:1000500003C011F0F2AA30EF00F0F2B457EF00F055
:100060000EC000F00FC001F010C002F011C003F08C
:100070000CC0E9FF07C0EAFF078E08C0E1FF09C016
:10008000E2FF0AC0D9FF0BC0DAFF12C0F3FF13C0B2
:10009000F4FF14C0FAFF15C0F5FF16C0F6FF17C035
:1000A000F7FF045006C0E0FF05C0D8FF10008A80AB
:1000B0009390000E016EC250E30B0110C26E060E4B
:1000C000006E002EFED70000C282C2B2FED7C4501E
:1000D000036A1D6E03C01EF0040E016EC250E30BD6
:1000E0000110C26E060E006E002EFED70000C28206
:1000F000C2B2FED7C450036A1B6E03C01CF022C0FC
:1001000024F021C023F01B501D5C216E1C501E5892
:10011000226E2C502E24006E24C030F023C02FF00D
:10012000005205E0D89030322F32002EFBD72F50EE
:10013000292630502A222350215C2F6E2450225829
:10014000306E2D502E5C006E30C003F02FC002F0D8
:10015000005205E0D89002360336002EFBD702C0CD
:1001600025F003C026F022C003F021C002F02B507E
:10017000006E05E0D89002360336002EFBD7025001
:10018000276E03C028F0255029242F6E26502A20E0
:10019000306E27502F241F6E28503020206E1FC035
:1001A0001AF019C0A9FF1AC0A8FFA69CA69EA68493
:1001B000F250006EF29E0F01550EA76EAA0EA76EAA
:1001C000A682A6B2FED7A6940050F212192AFC0EFF
:1001D000D76E180ED66E8A909390F294000130EF8D
:1001E00000F0F86AD09E078EEA6AE96A720ED36E52
:1001F000D350196A1A6A1C6A1B6A1E6A1D6A206A31
:100200001F6A266A256A286A276A2A6A296A010EED
:100210002B6E020E2C6E030E2D6E050E2E6EC29CE2
:10022000C29EC150800B7F09C16EC050C00B070930
:10023000C06EC09EC280C29CC29EC150800B7C0911
:10024000C16E000E016EC250E30B0110C26E060EAD
:10025000006E002EFED70000C282800ED56EFC0E0E
:10026000D76E180ED66EF294C00EF212F28AFFD735
:02027000030089
:020000040030CA
:0E00000000C80C1E0000810003C003E0034096
:00000001FF
;PIC18F1220
;CRC=E036  CREATED="24-mai-22 00:06"
